{
  "contractName": "CarbonFootprintCalculator",
  "abi": [
    {
      "inputs": [],
      "stateMutability": "nonpayable",
      "type": "constructor"
    },
    {
      "anonymous": false,
      "inputs": [
        {
          "indexed": true,
          "internalType": "address",
          "name": "user",
          "type": "address"
        },
        {
          "indexed": false,
          "internalType": "uint256",
          "name": "carbonFootprint",
          "type": "uint256"
        }
      ],
      "name": "CalculationResult",
      "type": "event"
    },
    {
      "anonymous": false,
      "inputs": [
        {
          "indexed": true,
          "internalType": "address",
          "name": "donor",
          "type": "address"
        },
        {
          "indexed": false,
          "internalType": "uint256",
          "name": "amount",
          "type": "uint256"
        }
      ],
      "name": "DonationReceived",
      "type": "event"
    },
    {
      "inputs": [
        {
          "internalType": "address",
          "name": "",
          "type": "address"
        }
      ],
      "name": "carbonFootprints",
      "outputs": [
        {
          "internalType": "uint256",
          "name": "",
          "type": "uint256"
        }
      ],
      "stateMutability": "view",
      "type": "function",
      "constant": true
    },
    {
      "inputs": [
        {
          "internalType": "address",
          "name": "",
          "type": "address"
        }
      ],
      "name": "donations",
      "outputs": [
        {
          "internalType": "uint256",
          "name": "",
          "type": "uint256"
        }
      ],
      "stateMutability": "view",
      "type": "function",
      "constant": true
    },
    {
      "inputs": [],
      "name": "owner",
      "outputs": [
        {
          "internalType": "address",
          "name": "",
          "type": "address"
        }
      ],
      "stateMutability": "view",
      "type": "function",
      "constant": true
    },
    {
      "inputs": [
        {
          "internalType": "uint256",
          "name": "distance",
          "type": "uint256"
        },
        {
          "internalType": "uint256",
          "name": "fuelEfficiency",
          "type": "uint256"
        }
      ],
      "name": "calculateCarbonFootprint",
      "outputs": [],
      "stateMutability": "nonpayable",
      "type": "function"
    },
    {
      "inputs": [],
      "name": "getCarbonFootprint",
      "outputs": [
        {
          "internalType": "uint256",
          "name": "",
          "type": "uint256"
        }
      ],
      "stateMutability": "view",
      "type": "function",
      "constant": true
    },
    {
      "inputs": [],
      "name": "donate",
      "outputs": [],
      "stateMutability": "payable",
      "type": "function",
      "payable": true
    },
    {
      "inputs": [],
      "name": "getDonation",
      "outputs": [
        {
          "internalType": "uint256",
          "name": "",
          "type": "uint256"
        }
      ],
      "stateMutability": "view",
      "type": "function",
      "constant": true
    },
    {
      "inputs": [
        {
          "internalType": "address",
          "name": "newOwner",
          "type": "address"
        }
      ],
      "name": "transferOwnership",
      "outputs": [],
      "stateMutability": "nonpayable",
      "type": "function"
    }
  ],
  "bytecode": "0x608060405234801561001057600080fd5b50336000806101000a81548173ffffffffffffffffffffffffffffffffffffffff021916908373ffffffffffffffffffffffffffffffffffffffff160217905550610905806100606000396000f3fe60806040526004361061007b5760003560e01c8063d7a33abf1161004e578063d7a33abf14610150578063e11bc14414610179578063ed88c68e146101a4578063f2fde38b146101ae5761007b565b80634bf717291461008057806367264057146100ab5780638da5cb5b146100e8578063cc6cb19a14610113575b600080fd5b34801561008c57600080fd5b506100956101d7565b6040516100a291906106fa565b60405180910390f35b3480156100b757600080fd5b506100d260048036038101906100cd9190610550565b61021e565b6040516100df91906106fa565b60405180910390f35b3480156100f457600080fd5b506100fd610236565b60405161010a919061069f565b60405180910390f35b34801561011f57600080fd5b5061013a60048036038101906101359190610550565b61025a565b60405161014791906106fa565b60405180910390f35b34801561015c57600080fd5b5061017760048036038101906101729190610579565b610272565b005b34801561018557600080fd5b5061018e610325565b60405161019b91906106fa565b60405180910390f35b6101ac61036c565b005b3480156101ba57600080fd5b506101d560048036038101906101d09190610550565b610455565b005b6000600260003373ffffffffffffffffffffffffffffffffffffffff1673ffffffffffffffffffffffffffffffffffffffff16815260200190815260200160002054905090565b60016020528060005260406000206000915090505481565b60008054906101000a900473ffffffffffffffffffffffffffffffffffffffff1681565b60026020528060005260406000206000915090505481565b60006064828461028291906107ad565b61028c919061077c565b905080600160003373ffffffffffffffffffffffffffffffffffffffff1673ffffffffffffffffffffffffffffffffffffffff168152602001908152602001600020819055503373ffffffffffffffffffffffffffffffffffffffff167f57e6bcac8d752499693503b831b8a3e84f6ee0c60740d242b22bda71bc4afaaf8260405161031891906106fa565b60405180910390a2505050565b6000600160003373ffffffffffffffffffffffffffffffffffffffff1673ffffffffffffffffffffffffffffffffffffffff16815260200190815260200160002054905090565b600034116103af576040517f08c379a00000000000000000000000000000000000000000000000000000000081526004016103a6906106da565b60405180910390fd5b34600260003373ffffffffffffffffffffffffffffffffffffffff1673ffffffffffffffffffffffffffffffffffffffff16815260200190815260200160002060008282546103fe9190610726565b925050819055503373ffffffffffffffffffffffffffffffffffffffff167f264f630d9efa0d07053a31163641d9fcc0adafc9d9e76f1c37c2ce3a558d2c523460405161044b91906106fa565b60405180910390a2565b60008054906101000a900473ffffffffffffffffffffffffffffffffffffffff1673ffffffffffffffffffffffffffffffffffffffff163373ffffffffffffffffffffffffffffffffffffffff16146104e3576040517f08c379a00000000000000000000000000000000000000000000000000000000081526004016104da906106ba565b60405180910390fd5b806000806101000a81548173ffffffffffffffffffffffffffffffffffffffff021916908373ffffffffffffffffffffffffffffffffffffffff16021790555050565b600081359050610535816108a1565b92915050565b60008135905061054a816108b8565b92915050565b60006020828403121561056257600080fd5b600061057084828501610526565b91505092915050565b6000806040838503121561058c57600080fd5b600061059a8582860161053b565b92505060206105ab8582860161053b565b9150509250929050565b6105be81610807565b82525050565b60006105d1602583610715565b91507f4f6e6c7920746865206f776e65722063616e2063616c6c20746869732066756e60008301527f6374696f6e0000000000000000000000000000000000000000000000000000006020830152604082019050919050565b6000610637602983610715565b91507f446f6e6174696f6e20616d6f756e74206d75737420626520677265617465722060008301527f7468616e207a65726f00000000000000000000000000000000000000000000006020830152604082019050919050565b61069981610839565b82525050565b60006020820190506106b460008301846105b5565b92915050565b600060208201905081810360008301526106d3816105c4565b9050919050565b600060208201905081810360008301526106f38161062a565b9050919050565b600060208201905061070f6000830184610690565b92915050565b600082825260208201905092915050565b600061073182610839565b915061073c83610839565b9250827fffffffffffffffffffffffffffffffffffffffffffffffffffffffffffffffff0382111561077157610770610843565b5b828201905092915050565b600061078782610839565b915061079283610839565b9250826107a2576107a1610872565b5b828204905092915050565b60006107b882610839565b91506107c383610839565b9250817fffffffffffffffffffffffffffffffffffffffffffffffffffffffffffffffff04831182151516156107fc576107fb610843565b5b828202905092915050565b600061081282610819565b9050919050565b600073ffffffffffffffffffffffffffffffffffffffff82169050919050565b6000819050919050565b7f4e487b7100000000000000000000000000000000000000000000000000000000600052601160045260246000fd5b7f4e487b7100000000000000000000000000000000000000000000000000000000600052601260045260246000fd5b6108aa81610807565b81146108b557600080fd5b50565b6108c181610839565b81146108cc57600080fd5b5056fea2646970667358221220d40419860de1098ffe0b4493a0d70a5b06085550438aab4233f65d3d74a37f0664736f6c63430008000033",
  "immutableReferences": {},
  "source": "// SPDX-License-Identifier: MIT\r\npragma solidity ^0.8.0;\r\n\r\ncontract CarbonFootprintCalculator {\r\n    address public owner;\r\n    mapping(address => uint256) public carbonFootprints;\r\n    mapping(address => uint256) public donations; // New mapping for tracking donations\r\n\r\n    event CalculationResult(address indexed user, uint256 carbonFootprint);\r\n    event DonationReceived(address indexed donor, uint256 amount); // New event for donation\r\n\r\n    constructor() {\r\n        owner = msg.sender;\r\n    }\r\n\r\n    modifier onlyOwner() {\r\n        require(msg.sender == owner, \"Only the owner can call this function\");\r\n        _;\r\n    }\r\n\r\n    function calculateCarbonFootprint(uint256 distance, uint256 fuelEfficiency) external {\r\n        uint256 carbonFootprint = (distance * fuelEfficiency) / 100;\r\n        carbonFootprints[msg.sender] = carbonFootprint;\r\n\r\n        emit CalculationResult(msg.sender, carbonFootprint);\r\n    }\r\n\r\n    function getCarbonFootprint() external view returns (uint256) {\r\n        return carbonFootprints[msg.sender];\r\n    }\r\n\r\n    function donate() external payable {\r\n        require(msg.value > 0, \"Donation amount must be greater than zero\");\r\n        donations[msg.sender] += msg.value;\r\n\r\n        emit DonationReceived(msg.sender, msg.value);\r\n    }\r\n\r\n    function getDonation() external view returns (uint256) {\r\n        return donations[msg.sender];\r\n    }\r\n\r\n    function transferOwnership(address newOwner) external onlyOwner {\r\n        owner = newOwner;\r\n    }\r\n}\r\n",
  "sourcePath": "D:\\Bluechip technologies\\Blockchain dev\\2024\\Carbon emision Aviation\\simple-carbon-footprint-app\\contracts\\CarbonFootprint.sol",
  "compiler": {
    "name": "solc",
    "version": "0.8.0+commit.c7dfd78e.Emscripten.clang"
  },
  "schemaVersion": "3.4.14",
  "updatedAt": "2024-02-26T07:31:30.694Z",
  "networkType": "ethereum",
  "devdoc": {
    "kind": "dev",
    "methods": {},
    "version": 1
  },
  "userdoc": {
    "kind": "user",
    "methods": {},
    "version": 1
  }
}